:020000040800F2
:100000003805002001010008271400081D1300080E
:10001000251400086D010008D51400080000000038
:100020000000000000000000000000002B14000889
:100030007D01000800000000291400082D140008AC
:100040001B0100081B0100081B0100081B01000820
:100050001B0100081B0100081B0100081B01000810
:100060001B0100081B0100081B0100081B01000800
:100070001B0100081B0100081B0100081B010008F0
:100080001B0100081B0100081B0100081B010008E0
:10009000C91400081B010008710100081B010008B9
:1000A0001B0100081B0100081B0100081B010008C0
:1000B0001B0100081B0100081B0100081B010008B0
:1000C0001B0100081B0100081B0100081B010008A0
:1000D0001B0100081B0100081B0100081B01000890
:1000E0001B0100081B0100081B010008DFF80CD0F1
:1000F00000F02AF8004800471515000838050020D0
:100100000648804706480047FEE7FEE7FEE7FEE7B1
:10011000FEE7FEE7FEE7FEE7FEE7FEE781140008E4
:10012000ED000008D2B201E000F8012B491EFBD21D
:1001300070470022F6E710B513460A4604461946F2
:10014000FFF7F0FF204610BD064C074D06E0E068C3
:1001500040F0010394E8070098471034AC42F6D30E
:10016000FFF7C8FF5816000878160008FEE70000E1
:10017000014800F091B9000074000020704790F829
:100180002020012A07D0022A05D0416A41F48021AB
:10019000416201207047006842690A4342610020C1
:1001A0007047F0B590F820500468A468012D05D080
:1001B000022D03D0416A41F4802153E014F0406FD6
:1001C00001D1E5004BD5C4F30164022C03D9416A87
:1001D00041F4000146E00125A5401D608D684FF403
:1001E000C0739DB1CE6835434E6845EAC6050668C2
:1001F00003EB0417F5514FF4C275076805EB0415BE
:100200000E697E51097D012905D009E00E88CD686F
:1002100045EA4655EBE701684E5946F480764E5163
:100220001179D2F805504FF4C67641EA05250168E8
:1002300006EB04168D511178D2F801204FF4C475E5
:1002400041EA0221026805EB04155151006803EBF5
:100250000411425842F0010242500020F0BD416AB0
:1002600041F4001141620120F0BD000010B590F88A
:1002700020300268012B07D0022B05D0416A41F4DF
:1002800080214162012010BDD2F8000240F001003F
:10029000C2F80002087D00F01F0301209840D2F848
:1002A0001C328343C2F81C32CB69B3B9D2F80C328A
:1002B0008343C2F80C328C894B6864F31F434C694A
:1002C00002EBC404C4F840320C890B6864F31F438A
:1002D0004C6902EBC404C4F84432CB69012B16D13B
:1002E000D2F80C320343C2F80C320C884B6864F32A
:1002F0001F434C6902EBC404C4F840320C89CB683C
:1003000064F31F434C6902EBC404C4F844328B69A4
:10031000002BD2F804320FD053EA0003C2F80432A3
:100320000B69002BD2F8143208D00343C2F8143200
:10033000096A012904D008E08343EFE78343F5E726
:10034000D2F81C120143C2F81C12D2F8000220F0AD
:100350000100C2F80002002010BD000010B50446E4
:100360004FF40051054800F0B9FC204600F008F8B1
:100370002046BDE8104000F0FEBA00000010014029
:10038000406A704730B590F82040012C05D0022C0F
:1003900003D0416A41F480215DE00468002955D012
:1003A0002469A40754D04FF4D874056804EB0114F1
:1003B0002D5915F00405956005682D594ED0ED08AE
:1003C000556005682C5904F00204D4604FF4DA74C7
:1003D000056804EB01142D5905F00F05156105683A
:1003E0002D59C5F30725956105682C59240C5461D6
:1003F0004FF4DC72046802EB0112A4581C7004680C
:10040000A458240A5C700468A458240C9C700468E6
:10041000A258120EDA704FF4DE72046802EB011279
:10042000A4581C710468A458240A5C710468A45878
:10043000240C9C710468A258120EDA71006881B114
:10044000016941F020010161002030BDE468A8E7A6
:10045000416A41F400114162012030BD6D0D15600B
:10046000AFE7C16841F02001C160EDE7024600201E
:1004700092F82010012901D002290CD111688A6854
:10048000520100D501208A68120100D5401C8968FC
:10049000C90000D5401C70472DE9F05F0546006893
:1004A00000244669D0F804908768D0F80CA0D0F8F2
:1004B00010B0D0F81880F10742D0F90712D001210E
:1004C0008160B80701D5A96A0AE0780702D54FF420
:1004D000006407E0380702D54FF4805402E0696BEE
:1004E00028468847F80514D529684FF4807088603D
:1004F000B80501D5E96A0AE0780502D544F400544C
:1005000007E0380502D544F4804402E0A96B284690
:100510008847F80314D529684FF480308860B80301
:1005200001D5296B0AE0780302D544F4004407E0C2
:10053000380302D544F4803402E0E96B284688474A
:1005400030074FF0100706D55FEACA6003D5286868
:1005500044F40074C760700708D55FEA0A7005D5D7
:1005600029680820C860696C28468847B00706D506
:100570002868C068800702D0296C28468847700622
:1005800006D55FEACB6003D5286844F48064076130
:10059000B00608D55FEA0B7005D529680820086108
:1005A000E96C28468847F00606D528680069800768
:1005B00002D0A96C28468847B00307D55FEAC96016
:1005C00004D528684760296D28468847F00308D578
:1005D0005FEA097005D5296808204860696D2846DA
:1005E0008847300446D55FEA497040D5F00504D508
:1005F0005FEAC87001D044F00104B00504D55FEA99
:10060000887001D544F00204700504D55FEA487093
:1006100001D544F00404300529D518F0700F26D018
:1006200008F07000402815D006DC102809D02028DA
:100630000AD0302816D10AE050280ED0602811D1F7
:100640000EE044F008040DE044F010040AE044F029
:10065000200407E044F0400404E044F0800401E09A
:1006600044F480742868816921F0700181612968EF
:1006700004204860002C07D0686A2043686228463E
:10068000A96DBDE8F05F0847BDE8F09F70B50400B4
:1006900003D094F8200010B122E0012070BD514831
:1006A0002064514860645148A0645148E064514856
:1006B000A0625148E062514820635148606351484C
:1006C000A0635148E0635148206551486065514836
:1006D000A065E06D08B95048E065014620468847AE
:1006E0002068016821F00201016000F003FB05466B
:1006F000052604E000F0FEFA401B0A2811D8206805
:1007000040688007F6D42068016841F0010101606B
:1007100000F0F0FA05460BE000F0ECFA401B0A2866
:1007200006D9606A40F40030606284F82060B4E763
:1007300020684068C007EFD0207E0128206801684B
:100740003DD021F080010160607E012820680168B1
:1007500038D021F040010160A07E012820680168A6
:1007600033D021F020010160E07E0128206801687B
:100770002ED041F010010160207F0128206801681F
:1007800029D021F008010160607F012820680168FC
:1007900024D021F004010160D4E902010843D4E926
:1007A0000412114308436168491E08432168C86167
:1007B00000206062012084F82000002070BD41F01C
:1007C0008001C0E741F04001C5E741F02001CAE7E0
:1007D00021F01001CFE741F00801D4E741F0040116
:1007E000D9E70000EB090008E9090008EF09000853
:1007F000ED0900084F0A0008530A0008570A0008CC
:100800004D0A0008510A0008550A0008F1090008BD
:10081000A50A00085D030008390800080146002009
:1008200091F82020012A01D0022A04D109684968E0
:10083000890700D50120704710B586B000210091CE
:1008400001910291039100681B49884232D11B48F3
:10085000C16941F00071C161C16901F00071049189
:10086000816941F0040181618069154C00F0040048
:1008700004904FF4006000906946204600F03EF975
:10088000A0140090022001900320039069462046A6
:1008900000F034F900221146142000F097FA1420D9
:1008A00000F086FA00221146162000F08FFA16207A
:1008B00000F07EFA06B010BD006400400010024057
:1008C0000008014010B500233AB190F82040012CF7
:1008D00009D090F8204064B32FE0416A41F48001D0
:1008E0004162012010BD0F2927D2DFE801F0080A7C
:1008F0000C0E10121416181A1C1E202D2F008262C6
:1009000020E0C2621EE002631CE042631AE08263E0
:1009100018E0C26316E0026414E0426412E08264EC
:1009200010E0C2640EE002650CE042650AE08265F8
:1009300008E00D2908D00E2908D0416A41F4800151
:1009400041620123184610BDC265FBE70266F9E764
:1009500090F82010012907D0022905D0416A41F4FE
:1009600080214162012070470068016841F0020166
:1009700001600020704790F820200021012A08D053
:10098000022A06D0416A41F48021416201210846D1
:10099000704700224262FAE710B5104B104A00215E
:1009A000FFF7F0FC4FF400510E4800F097F90C49A6
:1009B0000020A1F1BC048A69084B04EBC20209695A
:1009C00003E01C5C1454401CC0B28142F9D80349B6
:1009D000891F0888401C088010BD00001A000020F4
:1009E000F0000020001001407047704770477047CA
:1009F0007047000070B5044690F82000012804D02C
:100A0000606A40F40020606218E0022084F8200050
:100A10002068016821F00101016000F06BF90546D2
:100A20000EE000BF00F066F9401B0A2808D9606A92
:100A300040F400306062052084F82000012070BD81
:100A400020684068C007EDD1606270BD7047704794
:100A5000704770477047704708B500210091104AF1
:100A600090F82010012905D0022903D0416A41F4F1
:100A700080210CE001680B6823F002030B600099F1
:100A8000491C0091914205D9416A41F4003141620B
:100A9000012008BD016849688907F0D4002008BD1D
:100AA00040420F00074A10B511790446491C1171E4
:100AB000FFF7D2FF2046FFF7B1FE024914398860E4
:100AC00010BD0000140000200248416841F00101FF
:100AD00041607047002004E070B5044600F00AF958
:100AE0000546601C02D004480078044400F002F976
:100AF000401BA042FAD370BD240000202DE9F84F1E
:100B0000DFF8B891002409F1040A0AF1040B234626
:100B10000F270BF1040EC9E00125A5402A40AA4287
:100B20007DD1674ED1F804C0ACEB0608B44532D095
:100B300014DCBCF1030F3AD009DCBCF1000F2AD061
:100B4000BCF1010F1CD0BCF1020F31D11DE0BCF192
:100B5000110F17D0BCF1120F2AD119E0B8F5881F78
:100B600019D006DCB8F5803F15D0B8F5801F1FD12D
:100B700011E0B8F5001F0ED0B8F5041F18D10AE037
:100B8000CB6815E0CB681B1D12E0CB6808330FE083
:100B9000CB680C330CE08B682BB1012B4FF00803B2
:100BA00003D0456104E0042302E0056100E0002376
:100BB000FF2A01D8064601E000F104064FEA840549
:100BC00001D9A5F12005D6F8008007FA05FC28EA2E
:100BD0000C0803FA05F548EA0508C6F800804D68D8
:100BE000ED0062D5374DAE6946F00106AE61AD69E4
:100BF00024F0030605F001050095334D06EB050CC6
:100C0000DCF80850A607360F07FA06F825EA0805AB
:100C1000DFF8B880404503D14FF0000817E044E00A
:100C2000DFF8AC80404502D14FF001080FE0DFF85B
:100C3000A480404502D14FF0020808E0DFF8988018
:100C4000404502D14FF0030801E04FF0040808FAD4
:100C500006F848EA0508CCF808804D68D9F8006025
:100C6000ED034D4601D5164300E096432E604D68D6
:100C7000DAF80060AD03554601D5164300E096430F
:100C80002E604D68DBF80060ED025D4601D516432D
:100C900000E096432E604D68DEF80060AD027546B8
:100CA00001D5164300E096432E60641C0D682A4669
:100CB000E5407FF431AFBDE8F88F0000000401404B
:100CC0000000111000100240000001400008014027
:100CD000000C01400010014000140140C2680A42AB
:100CE00001D041617047016170470AB101617047ED
:100CF0000904FBE7014880687047000024000020D9
:100D00000248816802781144816070472400002005
:100D1000074810B5016841F010010160032000F0A0
:100D200075F8002000F006F800F024F8002010BD4F
:100D30000020024070B50D4D04464FF47A712878BA
:100D4000B1FBF0F00A490968B1FBF0F000F0D2FA0B
:100D500048B9102C07D200222146501E00F036F868
:100D600000206C6070BD012070BD000024000020D8
:100D7000300000200C4808B5816941F00101816113
:100D8000816901F001010091C16941F08051C161A7
:100D9000C06900F0805000900448416821F0E06193
:100DA00041F00071416008BD0010024000000140A8
:100DB000002809DB00F01F0201219140400980005A
:100DC00000F1E020C0F8001170470000F0B40E4BB5
:100DD0001B680C46C3F30223C3F10705042D00D999
:100DE0000425191D072901D2002300E0DB1E01267E
:100DF00006FA05F1491E214099409E40761E164094
:100E00003143F0BC00F067BB0CED00E0064900F098
:100E1000070208684FF6FF03184040EA0220034A21
:100E200010430860704700000CED00E00000FA0578
:100E30002DE9F0470F46050061D0434E306800F0C1
:100E40000700B84209D2306820F00700384330600C
:100E5000306800F00700B84251D128683B4C810748
:100E600012D5400703D5606840F4E06060602878E0
:100E7000000703D5606840F4605060606068A9684E
:100E800020F0F000084360602878C00728D0686828
:100E9000012810D02168022810D0890700292EDAF5
:100EA000616821F0030101436160FFF723FF804681
:100EB00041F288390DE021688903EFE78901EDE708
:100EC000FFF718FFA0EB0801494502D90320BDE850
:100ED000F0876068696800F00C00B0EB810FEFD11B
:100EE000306800F00700B8420BD9306820F00700E6
:100EF00038433060306800F00700B84201D001206C
:100F0000E5E72878400705D56068E96820F4E060E7
:100F1000084360602878000706D56068296920F4D6
:100F2000605040EAC100606000F01EF86168084A45
:100F3000C1F30311515CC8400649086006480068C7
:100F4000FFF7F8FE0020C2E7002002400010024038
:100F500048160008300000202800002001480068E2
:100F6000704700003000002012A185B00FC98DE845
:100F70000F0014A0144A006804905168134801F04F
:100F80000C03042B10D0082B0ED1C1F38343C903EB
:100F90001DF803000AD5516804AAC1F34041515C11
:100FA0000A4A5043B0FBF1F005B070470849484386
:100FB000FAE7000002030405060708090A0B0C0DF6
:100FC0000E0F1010010200000010024000127A0003
:100FD00000093D002DE9F84F040070D02078C04D85
:100FE000C00749D06868C0F38100012807D068684D
:100FF000C0F38100022809D16868C00306D52868BB
:10100000800339D560680028E7D035E06068B0F526
:10101000803F0BD010B1B0F5A02F11D0286820F47C
:1010200080302860286820F4802002E0286840F49E
:1010300080302860606890B1FFF75CFE06460AE0E9
:10104000286840F480202860F0E700BFFFF752FED8
:10105000801B642873D828688003F7D50CE0FFF75D
:1010600049FE064605E000BFFFF744FE801B6428EA
:10107000F0D828688003F7D420789A4E80074FF084
:1010800001094FF0000839D5686810F00C0F07D03F
:101090006868C0F38100022809D16868C00306D4DB
:1010A0002868800714D52069012808D110E020693C
:1010B000B0B1C6F80090FFF71DFE074605E00AE153
:1010C000FFF718FEC01B0228C4D828688007F7D590
:1010D0002868616920F0F80040EAC10028600DE04E
:1010E000C6F80080FFF706FE074604E0FFF702FEA1
:1010F000C01B022823D828688007F7D4207800076F
:101100002CD57948A169D9B1C0F80090FFF7F2FD5C
:10111000074604E0FFF7EEFDC01B02280FD8686AFF
:101120008007F7D571484FF4FA510068B0FBF1F031
:10113000009000BF0098411E0091FAD20EE080E0BE
:10114000C0F80080FFF7D6FD074604E0FFF7D2FDA8
:10115000C01B022875D8686A8007F7D4207840073A
:1011600060D5E8690027C00008D4E86940F08050E5
:10117000E861E869012700F0805000905C48016850
:10118000C90513D40168834641F480710160FFF7FB
:10119000B1FD824606E000BFFFF7ACFDA0EB0A0000
:1011A00064284ED8DBF80000C005F5D5E0680128BA
:1011B0000AD008B1052813D0286A20F0010028625F
:1011C000286A20F0040002E0286A40F0010028624A
:1011D000E06841F2883B98B1FFF78CFD82460BE056
:1011E000286A40F004002862EEE700BFFFF782FDA6
:1011F000A0EB0A0159455AD8286A8007F6D50CE0B9
:10120000FFF778FD824605E0FFF774FDA0EB0A01C9
:1012100059454CD8286A8007F6D41FB1E86920F0F8
:101220008050E861E06988B36968C1F381010229EF
:1012300044D00228C6F8608004D0FFF75BFD044666
:1012400038E034E0FFF756FD074604E0FFF752FDB3
:10125000C01B02282BD828688001F7D4206AB0F57B
:10126000803F05D16868A16820F4003008436860B9
:10127000D4E908010843696821F4741108436860DF
:10128000C6F86090FFF736FD044606E025E000BF93
:10129000FFF730FD001B022809D828688001F7D528
:1012A0001BE000BFFFF726FD001B022802D9032028
:1012B000BDE8F88F28688001F4D40EE00128F7D04B
:1012C0006868226A00F48031914204D1616A00F4B6
:1012D0007010884201D00120EAE70020E8E7000012
:1012E00000100240000042428004424230000020D0
:1012F0000070004010B5401EB0F1807F01D3012086
:1013000010BD4FF0E02460610F21601700F0E3F89A
:101310000020A06107202061002010BDFEE7000032
:101320000C480B494FF44022016009214160002123
:101330008160C0E903124FF4801242610176417668
:1013400001228276C17601774177FFF79FB90000CD
:101350000064004074000020F0B585B000242D48E2
:101360000094019402940394816941F01001816119
:10137000816901F010010491816941F020018161CE
:10138000816901F020010491816941F004018161CA
:10139000816901F004010491816941F008018161D2
:1013A00080691D4F00F008004FF4005504900022A2
:1013B00029463846FFF799FC0220CDE90240009506
:1013C0000125694601953846FFF798FB4FF44040E8
:1013D0000326CDE9000669463846FFF78FFBCDE9C5
:1013E00000540E4C694620460295FFF787FB48F2F1
:1013F000FE70CDE9000669462046FFF77FFB4FF6F9
:10140000FF70CDE9000669460548FFF777FB05B098
:10141000F0BD000000100240001001400008014033
:10142000000C0140FEE7704770477047FFF768BC4B
:1014300030B58FB028216846FEF77BFE14210AA83C
:10144000FEF777FE01210804CDE900100024029484
:1014500002250491CDE907504FF4E0100990684649
:10146000FFF7B8FD0F20CDE90A056802CDE90C4071
:1014700002210AA80E94FFF7DBFC0FB030BD00007C
:101480000D48016841F00101016041680B4A1140BB
:10149000416001680A4A11400160016821F480211D
:1014A0000160416821F4FE0141604FF41F01816039
:1014B0000449C00308607047001002400000FFF8B4
:1014C000FFFFF6FE08ED00E00148FEF7E5BF000073
:1014D00074000020FEE70907090E002804DB00F174
:1014E000E02080F80014704700F00F0000F1E020C9
:1014F00080F8141D704702E008C8121F08C1002AB6
:10150000FAD170477047002001E001C1121F002A84
:10151000FBD17047FFF7FCFBFFF78AFFFFF71CFFCB
:10152000FFF7FEFE444C00250126C4E905564FF4A2
:10153000C150E56120604FF4C25060604FF4C35069
:10154000A0604FF4C4502662C4E903052146A1F10E
:101550009800FEF78BFE4FF4D150666120604FF487
:10156000D25060604FF4D350A060C4E906654FF4D8
:10157000D4502662C4E903052146A1F19800FEF784
:1015800075FE48F60271A4F19800FEF7F8FD2B4AAB
:101590000621A4F19800FFF795F93104A4F1980011
:1015A000FEF7EDFD264A0B21A4F19800FFF78AF91A
:1015B000A4F19800FFF71EFAFFF7D0FC214CC121DF
:1015C00004F11406E0601C483438C0E90015042119
:1015D0008560C0E903517580FFF776FA16489838A0
:1015E000FFF7B6F914489838FFF718F9A060D8B992
:1015F00011489838FEF73AFFB0B1FF206080114BD8
:101600000D4910333439A3F10C02A1F16400FEF747
:10161000C8FD207018B16088411E6180EFD2094872
:10162000001D0178491C01704FF47A70FFF754FADD
:10163000308870803580D5E70C01002099090008BA
:10164000A50A0008000000200000000000000000C3
:1016500001020304060708097816000800000020AC
:1016600034000000F6140008AC1600083400002016
:1016700004050000061500080000000001DFC5D1C8
:10168000000000000000000000000000000000005A
:101690000000000000000000000000000100000049
:0C16A00010000000000000000024F40016
:04000005080000ED02
:00000001FF
